{
  "contractName": "ConsumerRole",
  "abi": [
    {
      "inputs": [],
      "stateMutability": "nonpayable",
      "type": "constructor"
    },
    {
      "anonymous": false,
      "inputs": [
        {
          "indexed": false,
          "internalType": "address",
          "name": "account",
          "type": "address"
        }
      ],
      "name": "ConsumerAdded",
      "type": "event"
    },
    {
      "anonymous": false,
      "inputs": [
        {
          "indexed": false,
          "internalType": "address",
          "name": "account",
          "type": "address"
        }
      ],
      "name": "ConsumerRemoved",
      "type": "event"
    },
    {
      "inputs": [
        {
          "internalType": "address",
          "name": "account",
          "type": "address"
        }
      ],
      "name": "isConsumer",
      "outputs": [
        {
          "internalType": "bool",
          "name": "",
          "type": "bool"
        }
      ],
      "stateMutability": "view",
      "type": "function"
    },
    {
      "inputs": [
        {
          "internalType": "address",
          "name": "account",
          "type": "address"
        }
      ],
      "name": "addConsumer",
      "outputs": [],
      "stateMutability": "nonpayable",
      "type": "function"
    },
    {
      "inputs": [],
      "name": "renounceConsumer",
      "outputs": [],
      "stateMutability": "nonpayable",
      "type": "function"
    }
  ],
  "bytecode": "0x608060405234801561001057600080fd5b506100203361002560201b60201c565b610217565b61003d81600061007760201b6101181790919060201c565b7f28b26e7a3d20aedbc5f8f2ebf7da671c0491723a2b78f47a097b0e46dee071428160405161006c91906101fc565b60405180910390a150565b600073ffffffffffffffffffffffffffffffffffffffff168173ffffffffffffffffffffffffffffffffffffffff1614156100b157600080fd5b6100c1828261012960201b60201c565b156100cb57600080fd5b60018260000160008373ffffffffffffffffffffffffffffffffffffffff1673ffffffffffffffffffffffffffffffffffffffff16815260200190815260200160002060006101000a81548160ff0219169083151502179055505050565b60008073ffffffffffffffffffffffffffffffffffffffff168273ffffffffffffffffffffffffffffffffffffffff16141561016457600080fd5b8260000160008373ffffffffffffffffffffffffffffffffffffffff1673ffffffffffffffffffffffffffffffffffffffff16815260200190815260200160002060009054906101000a900460ff16905092915050565b600073ffffffffffffffffffffffffffffffffffffffff82169050919050565b60006101e6826101bb565b9050919050565b6101f6816101db565b82525050565b600060208201905061021160008301846101ed565b92915050565b610566806102266000396000f3fe608060405234801561001057600080fd5b50600436106100415760003560e01c8063112940f91461004657806361e6982d14610062578063834ff7391461006c575b600080fd5b610060600480360381019061005b9190610400565b61009c565b005b61006a6100f0565b005b61008660048036038101906100819190610400565b6100fb565b6040516100939190610448565b60405180910390f35b6100a5336100fb565b6100e4576040517f08c379a00000000000000000000000000000000000000000000000000000000081526004016100db906104e6565b60405180910390fd5b6100ed816101c4565b50565b6100f933610212565b565b600061011182600061026090919063ffffffff16565b9050919050565b600073ffffffffffffffffffffffffffffffffffffffff168173ffffffffffffffffffffffffffffffffffffffff16141561015257600080fd5b61015c8282610260565b1561016657600080fd5b60018260000160008373ffffffffffffffffffffffffffffffffffffffff1673ffffffffffffffffffffffffffffffffffffffff16815260200190815260200160002060006101000a81548160ff0219169083151502179055505050565b6101d881600061011890919063ffffffff16565b7f28b26e7a3d20aedbc5f8f2ebf7da671c0491723a2b78f47a097b0e46dee07142816040516102079190610515565b60405180910390a150565b6102268160006102f290919063ffffffff16565b7fe3f5ed5f263f1f01764a96edfc7d025f511ec5f7d180e8816908b78bcf74f098816040516102559190610515565b60405180910390a150565b60008073ffffffffffffffffffffffffffffffffffffffff168273ffffffffffffffffffffffffffffffffffffffff16141561029b57600080fd5b8260000160008373ffffffffffffffffffffffffffffffffffffffff1673ffffffffffffffffffffffffffffffffffffffff16815260200190815260200160002060009054906101000a900460ff16905092915050565b600073ffffffffffffffffffffffffffffffffffffffff168173ffffffffffffffffffffffffffffffffffffffff16141561032c57600080fd5b6103368282610260565b61033f57600080fd5b60008260000160008373ffffffffffffffffffffffffffffffffffffffff1673ffffffffffffffffffffffffffffffffffffffff16815260200190815260200160002060006101000a81548160ff0219169083151502179055505050565b600080fd5b600073ffffffffffffffffffffffffffffffffffffffff82169050919050565b60006103cd826103a2565b9050919050565b6103dd816103c2565b81146103e857600080fd5b50565b6000813590506103fa816103d4565b92915050565b6000602082840312156104165761041561039d565b5b6000610424848285016103eb565b91505092915050565b60008115159050919050565b6104428161042d565b82525050565b600060208201905061045d6000830184610439565b92915050565b600082825260208201905092915050565b7f53656e64657220646f65736e277420686176652074686520636f6e73756d657260008201527f20726f6c652e0000000000000000000000000000000000000000000000000000602082015250565b60006104d0602683610463565b91506104db82610474565b604082019050919050565b600060208201905081810360008301526104ff816104c3565b9050919050565b61050f816103c2565b82525050565b600060208201905061052a6000830184610506565b9291505056fea2646970667358221220a343296ad0c4a132522017dccb2ba11ff8dbaa5d3aba663751826383fe8c57e264736f6c634300080a0033",
  "immutableReferences": {},
  "source": "pragma solidity >=0.4.22 <0.9.0;\n\n// Import the library 'Roles'\nimport \"./Roles.sol\";\n\n// Define a contract 'ConsumerRole' to manage this role - add, remove, check\ncontract ConsumerRole {\n    using Roles for Roles.Role;\n\n    // Define 2 events, one for Adding, and other for Removing\n    event ConsumerAdded(address account);\n    event ConsumerRemoved(address account);\n\n    // Define a struct 'consumers' by inheriting from 'Roles' library, struct Role\n    Roles.Role private consumers;\n\n    // In the constructor make the address that deploys this contract the 1st consumer\n    constructor() {\n        _addConsumer(msg.sender);\n    }\n\n    // Define an internal function '_addConsumer' to add this role, called by 'addConsumer'\n    function _addConsumer(address account) internal {\n        consumers.add(account);\n\n        emit ConsumerAdded(account);\n    }\n\n    // Define an internal function '_removeConsumer' to remove this role, called by 'removeConsumer'\n    function _removeConsumer(address account) internal {\n        consumers.remove(account);\n\n        emit ConsumerRemoved(account);\n    }\n\n    // Define a function 'isConsumer' to check this role\n    function isConsumer(address account) public view returns (bool) {\n        return consumers.has(account);\n    }\n\n    // Define a modifier that checks to see if msg.sender has the appropriate role\n    modifier onlyConsumer() {\n        require(\n            isConsumer(msg.sender),\n            \"Sender doesn't have the consumer role.\"\n        );\n        _;\n    }\n\n    // Define a function 'addConsumer' that adds this role\n    function addConsumer(address account) public onlyConsumer {\n        _addConsumer(account);\n    }\n\n    // Define a function 'renounceConsumer' to renounce this role\n    function renounceConsumer() public {\n        _removeConsumer(msg.sender);\n    }\n}\n",
  "sourcePath": "/home/waleed/Projects/Decentralized-Supply-Chain/contracts/ConsumerRole.sol",
  "compiler": {
    "name": "solc",
    "version": "0.8.10+commit.fc410830.Emscripten.clang"
  },
  "schemaVersion": "3.4.3",
  "updatedAt": "2022-02-15T19:09:39.421Z",
  "devdoc": {
    "kind": "dev",
    "methods": {},
    "version": 1
  },
  "userdoc": {
    "kind": "user",
    "methods": {},
    "version": 1
  }
}