{
  "contractName": "SupplyChain",
  "abi": [
    {
      "inputs": [],
      "stateMutability": "payable",
      "type": "constructor"
    },
    {
      "anonymous": false,
      "inputs": [
        {
          "indexed": false,
          "internalType": "address",
          "name": "account",
          "type": "address"
        }
      ],
      "name": "ConsumerAdded",
      "type": "event"
    },
    {
      "anonymous": false,
      "inputs": [
        {
          "indexed": false,
          "internalType": "address",
          "name": "account",
          "type": "address"
        }
      ],
      "name": "ConsumerRemoved",
      "type": "event"
    },
    {
      "anonymous": false,
      "inputs": [
        {
          "indexed": true,
          "internalType": "address",
          "name": "account",
          "type": "address"
        }
      ],
      "name": "DistributorAdded",
      "type": "event"
    },
    {
      "anonymous": false,
      "inputs": [
        {
          "indexed": true,
          "internalType": "address",
          "name": "account",
          "type": "address"
        }
      ],
      "name": "DistributorRemoved",
      "type": "event"
    },
    {
      "anonymous": false,
      "inputs": [
        {
          "indexed": false,
          "internalType": "uint256",
          "name": "upc",
          "type": "uint256"
        }
      ],
      "name": "ForSale",
      "type": "event"
    },
    {
      "anonymous": false,
      "inputs": [
        {
          "indexed": false,
          "internalType": "uint256",
          "name": "upc",
          "type": "uint256"
        }
      ],
      "name": "Manufactured",
      "type": "event"
    },
    {
      "anonymous": false,
      "inputs": [
        {
          "indexed": true,
          "internalType": "address",
          "name": "account",
          "type": "address"
        }
      ],
      "name": "ManufacturerAdded",
      "type": "event"
    },
    {
      "anonymous": false,
      "inputs": [
        {
          "indexed": true,
          "internalType": "address",
          "name": "account",
          "type": "address"
        }
      ],
      "name": "ManufacturerRemoved",
      "type": "event"
    },
    {
      "anonymous": false,
      "inputs": [
        {
          "indexed": false,
          "internalType": "uint256",
          "name": "upc",
          "type": "uint256"
        }
      ],
      "name": "Packed",
      "type": "event"
    },
    {
      "anonymous": false,
      "inputs": [
        {
          "indexed": false,
          "internalType": "uint256",
          "name": "upc",
          "type": "uint256"
        }
      ],
      "name": "Purchased",
      "type": "event"
    },
    {
      "anonymous": false,
      "inputs": [
        {
          "indexed": false,
          "internalType": "uint256",
          "name": "upc",
          "type": "uint256"
        }
      ],
      "name": "Received",
      "type": "event"
    },
    {
      "anonymous": false,
      "inputs": [
        {
          "indexed": true,
          "internalType": "address",
          "name": "account",
          "type": "address"
        }
      ],
      "name": "RetailerAdded",
      "type": "event"
    },
    {
      "anonymous": false,
      "inputs": [
        {
          "indexed": true,
          "internalType": "address",
          "name": "account",
          "type": "address"
        }
      ],
      "name": "RetailerRemoved",
      "type": "event"
    },
    {
      "anonymous": false,
      "inputs": [
        {
          "indexed": false,
          "internalType": "uint256",
          "name": "upc",
          "type": "uint256"
        }
      ],
      "name": "Shipped",
      "type": "event"
    },
    {
      "anonymous": false,
      "inputs": [
        {
          "indexed": false,
          "internalType": "uint256",
          "name": "upc",
          "type": "uint256"
        }
      ],
      "name": "Sold",
      "type": "event"
    },
    {
      "anonymous": false,
      "inputs": [
        {
          "indexed": true,
          "internalType": "address",
          "name": "oldOwner",
          "type": "address"
        },
        {
          "indexed": true,
          "internalType": "address",
          "name": "newOwner",
          "type": "address"
        }
      ],
      "name": "TransferOwnership",
      "type": "event"
    },
    {
      "inputs": [
        {
          "internalType": "address",
          "name": "account",
          "type": "address"
        }
      ],
      "name": "addConsumer",
      "outputs": [],
      "stateMutability": "nonpayable",
      "type": "function"
    },
    {
      "inputs": [
        {
          "internalType": "address",
          "name": "account",
          "type": "address"
        }
      ],
      "name": "addDistributor",
      "outputs": [],
      "stateMutability": "nonpayable",
      "type": "function"
    },
    {
      "inputs": [
        {
          "internalType": "address",
          "name": "account",
          "type": "address"
        }
      ],
      "name": "addManufacturer",
      "outputs": [],
      "stateMutability": "nonpayable",
      "type": "function"
    },
    {
      "inputs": [
        {
          "internalType": "address",
          "name": "account",
          "type": "address"
        }
      ],
      "name": "addRetailer",
      "outputs": [],
      "stateMutability": "nonpayable",
      "type": "function"
    },
    {
      "inputs": [
        {
          "internalType": "address",
          "name": "account",
          "type": "address"
        }
      ],
      "name": "isConsumer",
      "outputs": [
        {
          "internalType": "bool",
          "name": "",
          "type": "bool"
        }
      ],
      "stateMutability": "view",
      "type": "function"
    },
    {
      "inputs": [
        {
          "internalType": "address",
          "name": "account",
          "type": "address"
        }
      ],
      "name": "isDistributor",
      "outputs": [
        {
          "internalType": "bool",
          "name": "",
          "type": "bool"
        }
      ],
      "stateMutability": "view",
      "type": "function"
    },
    {
      "inputs": [
        {
          "internalType": "address",
          "name": "account",
          "type": "address"
        }
      ],
      "name": "isManufacturer",
      "outputs": [
        {
          "internalType": "bool",
          "name": "",
          "type": "bool"
        }
      ],
      "stateMutability": "view",
      "type": "function"
    },
    {
      "inputs": [],
      "name": "isOwner",
      "outputs": [
        {
          "internalType": "bool",
          "name": "",
          "type": "bool"
        }
      ],
      "stateMutability": "view",
      "type": "function"
    },
    {
      "inputs": [
        {
          "internalType": "address",
          "name": "account",
          "type": "address"
        }
      ],
      "name": "isRetailer",
      "outputs": [
        {
          "internalType": "bool",
          "name": "",
          "type": "bool"
        }
      ],
      "stateMutability": "view",
      "type": "function"
    },
    {
      "inputs": [],
      "name": "owner",
      "outputs": [
        {
          "internalType": "address",
          "name": "",
          "type": "address"
        }
      ],
      "stateMutability": "view",
      "type": "function"
    },
    {
      "inputs": [],
      "name": "renounceConsumer",
      "outputs": [],
      "stateMutability": "nonpayable",
      "type": "function"
    },
    {
      "inputs": [],
      "name": "renounceDistributor",
      "outputs": [],
      "stateMutability": "nonpayable",
      "type": "function"
    },
    {
      "inputs": [],
      "name": "renounceManufacturer",
      "outputs": [],
      "stateMutability": "nonpayable",
      "type": "function"
    },
    {
      "inputs": [],
      "name": "renounceOwnership",
      "outputs": [],
      "stateMutability": "nonpayable",
      "type": "function"
    },
    {
      "inputs": [],
      "name": "renounceRetailer",
      "outputs": [],
      "stateMutability": "nonpayable",
      "type": "function"
    },
    {
      "inputs": [
        {
          "internalType": "address",
          "name": "newOwner",
          "type": "address"
        }
      ],
      "name": "transferOwnership",
      "outputs": [],
      "stateMutability": "nonpayable",
      "type": "function"
    },
    {
      "inputs": [],
      "name": "kill",
      "outputs": [],
      "stateMutability": "nonpayable",
      "type": "function"
    },
    {
      "inputs": [
        {
          "internalType": "uint256",
          "name": "_upc",
          "type": "uint256"
        },
        {
          "internalType": "address",
          "name": "_originManufacturerID",
          "type": "address"
        },
        {
          "internalType": "string",
          "name": "_originManufacturerName",
          "type": "string"
        },
        {
          "internalType": "string",
          "name": "_originManufacturerInformation",
          "type": "string"
        }
      ],
      "name": "manufactureItem",
      "outputs": [],
      "stateMutability": "nonpayable",
      "type": "function"
    },
    {
      "inputs": [
        {
          "internalType": "uint256",
          "name": "_upc",
          "type": "uint256"
        }
      ],
      "name": "packItem",
      "outputs": [],
      "stateMutability": "nonpayable",
      "type": "function"
    },
    {
      "inputs": [
        {
          "internalType": "uint256",
          "name": "_upc",
          "type": "uint256"
        },
        {
          "internalType": "uint256",
          "name": "_price",
          "type": "uint256"
        }
      ],
      "name": "sellItem",
      "outputs": [],
      "stateMutability": "nonpayable",
      "type": "function"
    },
    {
      "inputs": [
        {
          "internalType": "uint256",
          "name": "_upc",
          "type": "uint256"
        }
      ],
      "name": "buyItem",
      "outputs": [],
      "stateMutability": "payable",
      "type": "function"
    },
    {
      "inputs": [
        {
          "internalType": "uint256",
          "name": "_upc",
          "type": "uint256"
        }
      ],
      "name": "shipItem",
      "outputs": [],
      "stateMutability": "nonpayable",
      "type": "function"
    },
    {
      "inputs": [
        {
          "internalType": "uint256",
          "name": "_upc",
          "type": "uint256"
        }
      ],
      "name": "receiveItem",
      "outputs": [],
      "stateMutability": "nonpayable",
      "type": "function"
    },
    {
      "inputs": [
        {
          "internalType": "uint256",
          "name": "_upc",
          "type": "uint256"
        }
      ],
      "name": "purchaseItem",
      "outputs": [],
      "stateMutability": "nonpayable",
      "type": "function"
    },
    {
      "inputs": [
        {
          "internalType": "uint256",
          "name": "_upc",
          "type": "uint256"
        }
      ],
      "name": "fetchItemBuffer",
      "outputs": [
        {
          "internalType": "uint256",
          "name": "itemUPC",
          "type": "uint256"
        },
        {
          "internalType": "uint256",
          "name": "productPrice",
          "type": "uint256"
        },
        {
          "internalType": "uint256",
          "name": "itemState",
          "type": "uint256"
        },
        {
          "internalType": "address",
          "name": "distributorID",
          "type": "address"
        },
        {
          "internalType": "address",
          "name": "retailerID",
          "type": "address"
        },
        {
          "internalType": "address",
          "name": "consumerID",
          "type": "address"
        }
      ],
      "stateMutability": "view",
      "type": "function"
    }
  ],
  "bytecode": "0x6080604052336000806101000a81548173ffffffffffffffffffffffffffffffffffffffff021916908373ffffffffffffffffffffffffffffffffffffffff16021790555060008054906101000a900473ffffffffffffffffffffffffffffffffffffffff1673ffffffffffffffffffffffffffffffffffffffff16600073ffffffffffffffffffffffffffffffffffffffff167f5c486528ec3e3f0ea91181cff8116f02bfa350e03b8b6f12e00765adbb5af85c60405160405180910390a3620000d0336200011160201b60201c565b620000e1336200016860201b60201c565b620000f233620001c960201b60201c565b62000103336200022a60201b60201c565b600160058190555062000436565b6200012c8160016200028b60201b62001a2b1790919060201c565b7f28b26e7a3d20aedbc5f8f2ebf7da671c0491723a2b78f47a097b0e46dee07142816040516200015d919062000419565b60405180910390a150565b620001838160026200028b60201b62001a2b1790919060201c565b8073ffffffffffffffffffffffffffffffffffffffff167fddbf200aa634dc3fb81cfd68583dd1040d1c751d335e1d86b631bde3e977fea860405160405180910390a250565b620001e48160036200028b60201b62001a2b1790919060201c565b8073ffffffffffffffffffffffffffffffffffffffff167f561138658ca49a8540dc70dcfe64c9026c1c5b9344642242dd6562970f9c127860405160405180910390a250565b620002458160046200028b60201b62001a2b1790919060201c565b8073ffffffffffffffffffffffffffffffffffffffff167f71ae26cad02663e3d92efd6ec56031a80d74a20c0ab4183faa8bf262261c9baa60405160405180910390a250565b600073ffffffffffffffffffffffffffffffffffffffff168173ffffffffffffffffffffffffffffffffffffffff161415620002c657600080fd5b620002d882826200034160201b60201c565b15620002e357600080fd5b60018260000160008373ffffffffffffffffffffffffffffffffffffffff1673ffffffffffffffffffffffffffffffffffffffff16815260200190815260200160002060006101000a81548160ff0219169083151502179055505050565b60008073ffffffffffffffffffffffffffffffffffffffff168273ffffffffffffffffffffffffffffffffffffffff1614156200037d57600080fd5b8260000160008373ffffffffffffffffffffffffffffffffffffffff1673ffffffffffffffffffffffffffffffffffffffff16815260200190815260200160002060009054906101000a900460ff16905092915050565b600073ffffffffffffffffffffffffffffffffffffffff82169050919050565b60006200040182620003d4565b9050919050565b6200041381620003f4565b82525050565b600060208201905062000430600083018462000408565b92915050565b612bcc80620004466000396000f3fe6080604052600436106101665760003560e01c80638ec4f505116100d1578063db0e6a2f1161008a578063f2fde38b11610064578063f2fde38b146104bc578063f30fc480146104e5578063f61c899a1461050e578063fc0a9d301461053757610166565b8063db0e6a2f14610472578063de07f34e14610489578063e7fb74c7146104a057610166565b80638ec4f5051461034d5780638f0c86fa146103765780638f32d59b146103b3578063a26be999146103de578063ba02bc8014610407578063d38ea5bf1461044957610166565b806361e6982d1161012357806361e6982d14610277578063644241db1461028e578063715018a6146102a55780637250e224146102bc578063834ff739146102e55780638da5cb5b1461032257610166565b8063112940f91461016b57806317d4a491146101945780632d923561146101d157806341c0e1b5146101fa5780635da09b88146102115780635f8a5afa1461024e575b600080fd5b34801561017757600080fd5b50610192600480360381019061018d91906120d8565b610560565b005b3480156101a057600080fd5b506101bb60048036038101906101b691906120d8565b6105b4565b6040516101c89190612120565b60405180910390f35b3480156101dd57600080fd5b506101f860048036038101906101f39190612171565b6105d1565b005b34801561020657600080fd5b5061020f6107aa565b005b34801561021d57600080fd5b50610238600480360381019061023391906120d8565b6107d2565b6040516102459190612120565b60405180910390f35b34801561025a57600080fd5b50610275600480360381019061027091906120d8565b6107ef565b005b34801561028357600080fd5b5061028c610843565b005b34801561029a57600080fd5b506102a361084e565b005b3480156102b157600080fd5b506102ba610859565b005b3480156102c857600080fd5b506102e360048036038101906102de91906120d8565b610928565b005b3480156102f157600080fd5b5061030c600480360381019061030791906120d8565b61097c565b6040516103199190612120565b60405180910390f35b34801561032e57600080fd5b50610337610999565b60405161034491906121c0565b60405180910390f35b34801561035957600080fd5b50610374600480360381019061036f91906120d8565b6109c2565b005b34801561038257600080fd5b5061039d600480360381019061039891906120d8565b610a16565b6040516103aa9190612120565b60405180910390f35b3480156103bf57600080fd5b506103c8610a33565b6040516103d59190612120565b60405180910390f35b3480156103ea57600080fd5b50610405600480360381019061040091906121db565b610a8a565b005b34801561041357600080fd5b5061042e600480360381019061042991906121db565b610c81565b60405161044096959493929190612217565b60405180910390f35b34801561045557600080fd5b50610470600480360381019061046b91906121db565b610da8565b005b34801561047e57600080fd5b50610487610f9e565b005b34801561049557600080fd5b5061049e610fa9565b005b6104ba60048036038101906104b591906121db565b610fb4565b005b3480156104c857600080fd5b506104e360048036038101906104de91906120d8565b61134b565b005b3480156104f157600080fd5b5061050c600480360381019061050791906121db565b611368565b005b34801561051a57600080fd5b50610535600480360381019061053091906121db565b611525565b005b34801561054357600080fd5b5061055e600480360381019061055991906123be565b6116e2565b005b6105693361097c565b6105a8576040517f08c379a000000000000000000000000000000000000000000000000000000000815260040161059f906124e0565b60405180910390fd5b6105b181611ad7565b50565b60006105ca826003611b2590919063ffffffff16565b9050919050565b81600160068111156105e6576105e5612500565b5b6006600083815260200190815260200160002060030160009054906101000a900460ff16600681111561061c5761061b612500565b5b1461065c576040517f08c379a00000000000000000000000000000000000000000000000000000000081526004016106539061257b565b60405180910390fd5b338073ffffffffffffffffffffffffffffffffffffffff163373ffffffffffffffffffffffffffffffffffffffff16146106cb576040517f08c379a00000000000000000000000000000000000000000000000000000000081526004016106c29061260d565b60405180910390fd5b6106d4336105b4565b610713576040517f08c379a000000000000000000000000000000000000000000000000000000000815260040161070a9061269f565b60405180910390fd5b60026006600086815260200190815260200160002060030160006101000a81548160ff0219169083600681111561074d5761074c612500565b5b02179055508260066000868152602001908152602001600020600201819055507fa96ae0fc3224ebd79eebfe54bd130cc9cb94416cddd1f2386115e00b725324688460405161079c91906126bf565b60405180910390a150505050565b6107b2610a33565b156107d0573373ffffffffffffffffffffffffffffffffffffffff16ff5b565b60006107e8826004611b2590919063ffffffff16565b9050919050565b6107f8336105b4565b610837576040517f08c379a000000000000000000000000000000000000000000000000000000000815260040161082e9061269f565b60405180910390fd5b61084081611bb7565b50565b61084c33611c11565b565b61085733611c5f565b565b610861610a33565b61086a57600080fd5b600073ffffffffffffffffffffffffffffffffffffffff1660008054906101000a900473ffffffffffffffffffffffffffffffffffffffff1673ffffffffffffffffffffffffffffffffffffffff167f5c486528ec3e3f0ea91181cff8116f02bfa350e03b8b6f12e00765adbb5af85c60405160405180910390a360008060006101000a81548173ffffffffffffffffffffffffffffffffffffffff021916908373ffffffffffffffffffffffffffffffffffffffff160217905550565b61093133610a16565b610970576040517f08c379a00000000000000000000000000000000000000000000000000000000081526004016109679061274c565b60405180910390fd5b61097981611cb9565b50565b6000610992826001611b2590919063ffffffff16565b9050919050565b60008060009054906101000a900473ffffffffffffffffffffffffffffffffffffffff16905090565b6109cb336107d2565b610a0a576040517f08c379a0000000000000000000000000000000000000000000000000000000008152600401610a01906127de565b60405180910390fd5b610a1381611d13565b50565b6000610a2c826002611b2590919063ffffffff16565b9050919050565b60008060009054906101000a900473ffffffffffffffffffffffffffffffffffffffff1673ffffffffffffffffffffffffffffffffffffffff163373ffffffffffffffffffffffffffffffffffffffff1614905090565b8060046006811115610a9f57610a9e612500565b5b6006600083815260200190815260200160002060030160009054906101000a900460ff166006811115610ad557610ad4612500565b5b14610b15576040517f08c379a0000000000000000000000000000000000000000000000000000000008152600401610b0c9061284a565b60405180910390fd5b610b1e336107d2565b610b5d576040517f08c379a0000000000000000000000000000000000000000000000000000000008152600401610b54906127de565b60405180910390fd5b336006600084815260200190815260200160002060010160006101000a81548173ffffffffffffffffffffffffffffffffffffffff021916908373ffffffffffffffffffffffffffffffffffffffff16021790555060056006600084815260200190815260200160002060030160006101000a81548160ff02191690836006811115610bec57610beb612500565b5b0217905550336006600084815260200190815260200160002060070160006101000a81548173ffffffffffffffffffffffffffffffffffffffff021916908373ffffffffffffffffffffffffffffffffffffffff1602179055507fa8142743f8f70a4c26f3691cf4ed59718381fb2f18070ec52be1f1022d85555782604051610c7591906126bf565b60405180910390a15050565b60008060008060008060066000888152602001908152602001600020600001549550600660008881526020019081526020016000206002015494506006600088815260200190815260200160002060030160009054906101000a900460ff166006811115610cf257610cf1612500565b5b93506006600088815260200190815260200160002060060160009054906101000a900473ffffffffffffffffffffffffffffffffffffffff1692506006600088815260200190815260200160002060070160009054906101000a900473ffffffffffffffffffffffffffffffffffffffff1691506006600088815260200190815260200160002060080160009054906101000a900473ffffffffffffffffffffffffffffffffffffffff16905091939550919395565b8060056006811115610dbd57610dbc612500565b5b6006600083815260200190815260200160002060030160009054906101000a900460ff166006811115610df357610df2612500565b5b14610e33576040517f08c379a0000000000000000000000000000000000000000000000000000000008152600401610e2a906128b6565b60405180910390fd5b610e3c3361097c565b610e7b576040517f08c379a0000000000000000000000000000000000000000000000000000000008152600401610e72906124e0565b60405180910390fd5b336006600084815260200190815260200160002060010160006101000a81548173ffffffffffffffffffffffffffffffffffffffff021916908373ffffffffffffffffffffffffffffffffffffffff160217905550600680600084815260200190815260200160002060030160006101000a81548160ff02191690836006811115610f0957610f08612500565b5b0217905550336006600084815260200190815260200160002060080160006101000a81548173ffffffffffffffffffffffffffffffffffffffff021916908373ffffffffffffffffffffffffffffffffffffffff1602179055507f653d56639fee6b566a5c804764e9689de38645f0b733df89a36a1b7b42173dd882604051610f9291906126bf565b60405180910390a15050565b610fa733611d6d565b565b610fb233611dc7565b565b8060026006811115610fc957610fc8612500565b5b6006600083815260200190815260200160002060030160009054906101000a900460ff166006811115610fff57610ffe612500565b5b1461103f576040517f08c379a000000000000000000000000000000000000000000000000000000000815260040161103690612922565b60405180910390fd5b600660008381526020019081526020016000206002015480341015611099576040517f08c379a0000000000000000000000000000000000000000000000000000000008152600401611090906129b4565b60405180910390fd5b826110a333610a16565b6110e2576040517f08c379a00000000000000000000000000000000000000000000000000000000081526004016110d99061274c565b60405180910390fd5b336006600086815260200190815260200160002060010160006101000a81548173ffffffffffffffffffffffffffffffffffffffff021916908373ffffffffffffffffffffffffffffffffffffffff16021790555060036006600086815260200190815260200160002060030160006101000a81548160ff0219169083600681111561117157611170612500565b5b0217905550336006600086815260200190815260200160002060060160006101000a81548173ffffffffffffffffffffffffffffffffffffffff021916908373ffffffffffffffffffffffffffffffffffffffff1602179055506000600660008681526020019081526020016000206002015490506006600086815260200190815260200160002060030160019054906101000a900473ffffffffffffffffffffffffffffffffffffffff1673ffffffffffffffffffffffffffffffffffffffff166108fc829081150290604051600060405180830381858888f19350505050158015611262573d6000803e3d6000fd5b507f92f64ca637d023f354075a4be751b169c1a8a9ccb6d33cdd0cb35205439957278560405161129291906126bf565b60405180910390a150600060066000838152602001908152602001600020600201549050600081346112c49190612a03565b90506006600084815260200190815260200160002060080160009054906101000a900473ffffffffffffffffffffffffffffffffffffffff1673ffffffffffffffffffffffffffffffffffffffff166108fc829081150290604051600060405180830381858888f19350505050158015611342573d6000803e3d6000fd5b50505050505050565b611353610a33565b61135c57600080fd5b61136581611e21565b50565b806000600681111561137d5761137c612500565b5b6006600083815260200190815260200160002060030160009054906101000a900460ff1660068111156113b3576113b2612500565b5b146113f3576040517f08c379a00000000000000000000000000000000000000000000000000000000081526004016113ea90612aa9565b60405180910390fd5b338073ffffffffffffffffffffffffffffffffffffffff163373ffffffffffffffffffffffffffffffffffffffff1614611462576040517f08c379a00000000000000000000000000000000000000000000000000000000081526004016114599061260d565b60405180910390fd5b61146b336105b4565b6114aa576040517f08c379a00000000000000000000000000000000000000000000000000000000081526004016114a19061269f565b60405180910390fd5b60016006600085815260200190815260200160002060030160006101000a81548160ff021916908360068111156114e4576114e3612500565b5b02179055507f9b3b66e2380b690bae22c73ef1428fb0c91e72fe14a4b6defa13035214187aff8360405161151891906126bf565b60405180910390a1505050565b806003600681111561153a57611539612500565b5b6006600083815260200190815260200160002060030160009054906101000a900460ff1660068111156115705761156f612500565b5b146115b0576040517f08c379a00000000000000000000000000000000000000000000000000000000081526004016115a790612b15565b60405180910390fd5b338073ffffffffffffffffffffffffffffffffffffffff163373ffffffffffffffffffffffffffffffffffffffff161461161f576040517f08c379a00000000000000000000000000000000000000000000000000000000081526004016116169061260d565b60405180910390fd5b61162833610a16565b611667576040517f08c379a000000000000000000000000000000000000000000000000000000000815260040161165e9061274c565b60405180910390fd5b60046006600085815260200190815260200160002060030160006101000a81548160ff021916908360068111156116a1576116a0612500565b5b02179055507ff00b9a5725b80c54016f42114f6ed7792d22eecb116011c4afac29c57bef6c95836040516116d591906126bf565b60405180910390a1505050565b6116eb336105b4565b61172a576040517f08c379a00000000000000000000000000000000000000000000000000000000081526004016117219061269f565b60405180910390fd5b6040518061014001604052808581526020018473ffffffffffffffffffffffffffffffffffffffff168152602001600081526020016000600681111561177357611772612500565b5b81526020018473ffffffffffffffffffffffffffffffffffffffff168152602001838152602001828152602001600073ffffffffffffffffffffffffffffffffffffffff168152602001600073ffffffffffffffffffffffffffffffffffffffff168152602001600073ffffffffffffffffffffffffffffffffffffffff16815250600660008681526020019081526020016000206000820151816000015560208201518160010160006101000a81548173ffffffffffffffffffffffffffffffffffffffff021916908373ffffffffffffffffffffffffffffffffffffffff1602179055506040820151816002015560608201518160030160006101000a81548160ff0219169083600681111561188e5761188d612500565b5b021790555060808201518160030160016101000a81548173ffffffffffffffffffffffffffffffffffffffff021916908373ffffffffffffffffffffffffffffffffffffffff16021790555060a08201518160040190805190602001906118f6929190611fc3565b5060c0820151816005019080519060200190611913929190611fc3565b5060e08201518160060160006101000a81548173ffffffffffffffffffffffffffffffffffffffff021916908373ffffffffffffffffffffffffffffffffffffffff1602179055506101008201518160070160006101000a81548173ffffffffffffffffffffffffffffffffffffffff021916908373ffffffffffffffffffffffffffffffffffffffff1602179055506101208201518160080160006101000a81548173ffffffffffffffffffffffffffffffffffffffff021916908373ffffffffffffffffffffffffffffffffffffffff1602179055509050507fd29d8a68ca7c8c74be5579719d445aabfe230ed6e6a83aff475a663500eb760984604051611a1d91906126bf565b60405180910390a150505050565b600073ffffffffffffffffffffffffffffffffffffffff168173ffffffffffffffffffffffffffffffffffffffff161415611a6557600080fd5b611a6f8282611b25565b15611a7957600080fd5b60018260000160008373ffffffffffffffffffffffffffffffffffffffff1673ffffffffffffffffffffffffffffffffffffffff16815260200190815260200160002060006101000a81548160ff0219169083151502179055505050565b611aeb816001611a2b90919063ffffffff16565b7f28b26e7a3d20aedbc5f8f2ebf7da671c0491723a2b78f47a097b0e46dee0714281604051611b1a91906121c0565b60405180910390a150565b60008073ffffffffffffffffffffffffffffffffffffffff168273ffffffffffffffffffffffffffffffffffffffff161415611b6057600080fd5b8260000160008373ffffffffffffffffffffffffffffffffffffffff1673ffffffffffffffffffffffffffffffffffffffff16815260200190815260200160002060009054906101000a900460ff16905092915050565b611bcb816003611a2b90919063ffffffff16565b8073ffffffffffffffffffffffffffffffffffffffff167f561138658ca49a8540dc70dcfe64c9026c1c5b9344642242dd6562970f9c127860405160405180910390a250565b611c25816001611f1890919063ffffffff16565b7fe3f5ed5f263f1f01764a96edfc7d025f511ec5f7d180e8816908b78bcf74f09881604051611c5491906121c0565b60405180910390a150565b611c73816002611f1890919063ffffffff16565b8073ffffffffffffffffffffffffffffffffffffffff167f126174f6cf49c81cdb4a9214c6b8f037bef55b4ec31e4fc776cea2a1c8a88d5960405160405180910390a250565b611ccd816002611a2b90919063ffffffff16565b8073ffffffffffffffffffffffffffffffffffffffff167fddbf200aa634dc3fb81cfd68583dd1040d1c751d335e1d86b631bde3e977fea860405160405180910390a250565b611d27816004611a2b90919063ffffffff16565b8073ffffffffffffffffffffffffffffffffffffffff167f71ae26cad02663e3d92efd6ec56031a80d74a20c0ab4183faa8bf262261c9baa60405160405180910390a250565b611d81816004611f1890919063ffffffff16565b8073ffffffffffffffffffffffffffffffffffffffff167fdb7176e79cffef81cb01767dd0447a0b24bb72ca9778d4b245581086b2a7e6db60405160405180910390a250565b611ddb816003611f1890919063ffffffff16565b8073ffffffffffffffffffffffffffffffffffffffff167f2fed5abf6a80d6dfe30b4895481b2fc5d7dce5f8f7b931832f4a2947d5040c7f60405160405180910390a250565b600073ffffffffffffffffffffffffffffffffffffffff168173ffffffffffffffffffffffffffffffffffffffff161415611e5b57600080fd5b8073ffffffffffffffffffffffffffffffffffffffff1660008054906101000a900473ffffffffffffffffffffffffffffffffffffffff1673ffffffffffffffffffffffffffffffffffffffff167f5c486528ec3e3f0ea91181cff8116f02bfa350e03b8b6f12e00765adbb5af85c60405160405180910390a3806000806101000a81548173ffffffffffffffffffffffffffffffffffffffff021916908373ffffffffffffffffffffffffffffffffffffffff16021790555050565b600073ffffffffffffffffffffffffffffffffffffffff168173ffffffffffffffffffffffffffffffffffffffff161415611f5257600080fd5b611f5c8282611b25565b611f6557600080fd5b60008260000160008373ffffffffffffffffffffffffffffffffffffffff1673ffffffffffffffffffffffffffffffffffffffff16815260200190815260200160002060006101000a81548160ff0219169083151502179055505050565b828054611fcf90612b64565b90600052602060002090601f016020900481019282611ff15760008555612038565b82601f1061200a57805160ff1916838001178555612038565b82800160010185558215612038579182015b8281111561203757825182559160200191906001019061201c565b5b5090506120459190612049565b5090565b5b8082111561206257600081600090555060010161204a565b5090565b6000604051905090565b600080fd5b600080fd5b600073ffffffffffffffffffffffffffffffffffffffff82169050919050565b60006120a58261207a565b9050919050565b6120b58161209a565b81146120c057600080fd5b50565b6000813590506120d2816120ac565b92915050565b6000602082840312156120ee576120ed612070565b5b60006120fc848285016120c3565b91505092915050565b60008115159050919050565b61211a81612105565b82525050565b60006020820190506121356000830184612111565b92915050565b6000819050919050565b61214e8161213b565b811461215957600080fd5b50565b60008135905061216b81612145565b92915050565b6000806040838503121561218857612187612070565b5b60006121968582860161215c565b92505060206121a78582860161215c565b9150509250929050565b6121ba8161209a565b82525050565b60006020820190506121d560008301846121b1565b92915050565b6000602082840312156121f1576121f0612070565b5b60006121ff8482850161215c565b91505092915050565b6122118161213b565b82525050565b600060c08201905061222c6000830189612208565b6122396020830188612208565b6122466040830187612208565b61225360608301866121b1565b61226060808301856121b1565b61226d60a08301846121b1565b979650505050505050565b600080fd5b600080fd5b6000601f19601f8301169050919050565b7f4e487b7100000000000000000000000000000000000000000000000000000000600052604160045260246000fd5b6122cb82612282565b810181811067ffffffffffffffff821117156122ea576122e9612293565b5b80604052505050565b60006122fd612066565b905061230982826122c2565b919050565b600067ffffffffffffffff82111561232957612328612293565b5b61233282612282565b9050602081019050919050565b82818337600083830152505050565b600061236161235c8461230e565b6122f3565b90508281526020810184848401111561237d5761237c61227d565b5b61238884828561233f565b509392505050565b600082601f8301126123a5576123a4612278565b5b81356123b584826020860161234e565b91505092915050565b600080600080608085870312156123d8576123d7612070565b5b60006123e68782880161215c565b94505060206123f7878288016120c3565b935050604085013567ffffffffffffffff81111561241857612417612075565b5b61242487828801612390565b925050606085013567ffffffffffffffff81111561244557612444612075565b5b61245187828801612390565b91505092959194509250565b600082825260208201905092915050565b7f53656e64657220646f65736e277420686176652074686520636f6e73756d657260008201527f20726f6c652e0000000000000000000000000000000000000000000000000000602082015250565b60006124ca60268361245d565b91506124d58261246e565b604082019050919050565b600060208201905081810360008301526124f9816124bd565b9050919050565b7f4e487b7100000000000000000000000000000000000000000000000000000000600052602160045260246000fd5b7f50726f64756374206861736e2774206265656e207061636b65642e0000000000600082015250565b6000612565601b8361245d565b91506125708261252f565b602082019050919050565b6000602082019050818103600083015261259481612558565b9050919050565b7f53656e646572206973206e6f74207468652063616c6c6572206f66207468652060008201527f636f6e74726163742e0000000000000000000000000000000000000000000000602082015250565b60006125f760298361245d565b91506126028261259b565b604082019050919050565b60006020820190508181036000830152612626816125ea565b9050919050565b7f53656e64657220646f65736e2774206861766520746865206d616e756661637460008201527f7572657220726f6c652e00000000000000000000000000000000000000000000602082015250565b6000612689602a8361245d565b91506126948261262d565b604082019050919050565b600060208201905081810360008301526126b88161267c565b9050919050565b60006020820190506126d46000830184612208565b92915050565b7f53656e64657220646f65736e277420686176652074686520646973747269627560008201527f746f7220726f6c652e0000000000000000000000000000000000000000000000602082015250565b600061273660298361245d565b9150612741826126da565b604082019050919050565b6000602082019050818103600083015261276581612729565b9050919050565b7f53656e64657220646f65736e27742068617665207468652072657461696c657260008201527f20726f6c652e0000000000000000000000000000000000000000000000000000602082015250565b60006127c860268361245d565b91506127d38261276c565b604082019050919050565b600060208201905081810360008301526127f7816127bb565b9050919050565b7f50726f64756374206861736e2774206265656e20736869707065642e00000000600082015250565b6000612834601c8361245d565b915061283f826127fe565b602082019050919050565b6000602082019050818103600083015261286381612827565b9050919050565b7f50726f64756374206861736e2774206265656e2072656365697665642e000000600082015250565b60006128a0601d8361245d565b91506128ab8261286a565b602082019050919050565b600060208201905081810360008301526128cf81612893565b9050919050565b7f50726f647563742069736e277420666f722073616c65207965742e0000000000600082015250565b600061290c601b8361245d565b9150612917826128d6565b602082019050919050565b6000602082019050818103600083015261293b816128ff565b9050919050565b7f5061696420616d6f756e7420697320696e73756666696369656e7420666f722060008201527f7468652070726963652e00000000000000000000000000000000000000000000602082015250565b600061299e602a8361245d565b91506129a982612942565b604082019050919050565b600060208201905081810360008301526129cd81612991565b9050919050565b7f4e487b7100000000000000000000000000000000000000000000000000000000600052601160045260246000fd5b6000612a0e8261213b565b9150612a198361213b565b925082821015612a2c57612a2b6129d4565b5b828203905092915050565b7f50726f64756374206861736e2774206265656e206d616e75666163747572656460008201527f2e00000000000000000000000000000000000000000000000000000000000000602082015250565b6000612a9360218361245d565b9150612a9e82612a37565b604082019050919050565b60006020820190508181036000830152612ac281612a86565b9050919050565b7f50726f64756374206861736e2774206265656e20736f6c642e00000000000000600082015250565b6000612aff60198361245d565b9150612b0a82612ac9565b602082019050919050565b60006020820190508181036000830152612b2e81612af2565b9050919050565b7f4e487b7100000000000000000000000000000000000000000000000000000000600052602260045260246000fd5b60006002820490506001821680612b7c57607f821691505b60208210811415612b9057612b8f612b35565b5b5091905056fea2646970667358221220210ac6897b9b21a33d5523325bf68f9d54412070bf63649813a6a1b1583037e764736f6c634300080a0033",
  "immutableReferences": {},
  "source": "// SPDX-License-Identifier: UNLICENSED\npragma solidity >=0.4.22 <0.9.0;\n\nimport \"./Ownable.sol\";\nimport \"./roles/Consumer.sol\";\nimport \"./roles/Distributor.sol\";\nimport \"./roles/Manufacturer.sol\";\nimport \"./roles/Retailer.sol\";\n\ncontract SupplyChain is Ownable, Consumer, Distributor, Manufacturer, Retailer {\n    // Define a variable called 'upc' for Universal Product Code (UPC)\n    uint256 upc;\n\n    // Define enum 'State' with the following values (from 0 to 6):\n    enum State {\n        Manufactured,\n        Packed,\n        ForSale,\n        Sold,\n        Shipped,\n        Received,\n        Purchased\n    }\n\n    State constant defaultState = State.Manufactured;\n\n    struct Item {\n        uint256 upc; // Universal Product Code (UPC), generated by the Manuufacturer, goes on the package, can be verified by the Consumer\n        address ownerID; // Metamask-Ethereum address of the current owner as the product moves through 7 stages\n        uint256 productPrice; // Product Price\n        State itemState; // Product State as represented in the enum above\n\n        address originManufacturerID; // Metamask-Ethereum address of the Manufacturer\n        string originManufacturerName; // Manufacturer Name\n        string originManufacturerInformation; // Manufacturer Information\n\n        address distributorID; // Metamask-Ethereum address of the Distributor\n        address retailerID; // Metamask-Ethereum address of the Retailer\n        address consumerID; // Metamask-Ethereum address of the Consumer\n    }\n\n    // Define a public mapping 'items' that maps the UPC to an Item.\n    mapping(uint256 => Item) items;\n\n    // Define 7 events with the same 7 state values and accept 'upc' as input argument\n    event Manufactured(uint256 upc);\n    event Packed(uint256 upc);\n    event ForSale(uint256 upc);\n    event Sold(uint256 upc);\n    event Shipped(uint256 upc);\n    event Received(uint256 upc);\n    event Purchased(uint256 upc);\n\n    // In the constructor set 'owner' to the address that instantiated the contract\n    // and set 'upc' to 1\n    constructor() payable {\n        upc = 1;\n    }\n\n    // Define a function 'kill' if required\n    function kill() public {\n        if (isOwner()) selfdestruct(payable(msg.sender));\n    }\n\n    // Define a function 'manufactureItem' that allows a manufacturer to mark an item 'Manufactured'\n    function manufactureItem(\n        uint256 _upc,\n        address _originManufacturerID,\n        string memory _originManufacturerName,\n        string memory _originManufacturerInformation\n    ) public onlyManufacturer {\n        // Add the new item as part of Manufacturing\n        items[_upc] = Item({\n            upc: _upc,\n            ownerID: _originManufacturerID,\n            productPrice: 0,\n            itemState: State.Manufactured,\n\n            originManufacturerID: _originManufacturerID,\n            originManufacturerName: _originManufacturerName,\n            originManufacturerInformation: _originManufacturerInformation,\n\n            distributorID: address(0),\n            retailerID: address(0),\n            consumerID: address(0)\n        });\n\n        // Emit the appropriate event\n        emit Manufactured(_upc);\n    }\n\n    // Define a function 'packItem' that allows a manufacturer to mark an item 'Packed'\n    // Call modifier to check if upc has passed previous supply chain stage\n    // Call modifier to verify caller of this function\n    function packItem(uint256 _upc)\n        public\n        manufactured(_upc)\n        verifyCaller(msg.sender)\n        onlyManufacturer\n    {\n        // Update the appropriate fields\n        items[_upc].itemState = State.Packed;\n\n        // Emit the appropriate event\n        emit Packed(_upc);\n    }\n\n    // Define a function 'sellItem' that allows a manufacturer to mark an item 'ForSale'\n    // Call modifier to check if upc has passed previous supply chain stage\n    // Call modifier to verify caller of this function\n    function sellItem(uint256 _upc, uint256 _price)\n        public\n        packed(_upc)\n        verifyCaller(msg.sender)\n        onlyManufacturer\n    {\n        // Update the appropriate fields\n        items[_upc].itemState = State.ForSale;\n        items[_upc].productPrice = _price;\n\n        // Emit the appropriate event\n        emit ForSale(_upc);\n    }\n\n    // Define a function 'buyItem' that allows the disributor to mark an item 'Sold'\n    // Use the above defined modifiers to check if the item is available for sale, if the buyer has paid enough,\n    // and any excess ether sent is refunded back to the buyer\n    // Call modifier to check if upc has passed previous supply chain stage\n    // Call modifer to check if buyer has paid enough\n    // Call modifer to send any excess ether back to buyer\n    function buyItem(uint256 _upc)\n        public\n        payable\n        forSale(_upc)\n        paidEnough(items[_upc].productPrice)\n        checkValue(_upc)\n        onlyDistributor\n    {\n        // Update the appropriate fields - ownerID, distributorID, itemState\n        items[_upc].ownerID = msg.sender;\n        items[_upc].itemState = State.Sold;\n        items[_upc].distributorID = msg.sender;\n\n        // Transfer money to manufacturer\n        uint256 price = items[_upc].productPrice;\n        payable(items[_upc].originManufacturerID).transfer(price);\n\n        // emit the appropriate event\n        emit Sold(_upc);\n    }\n\n    // Define a function 'shipItem' that allows the distributor to mark an item 'Shipped'\n    // Use the above modifers to check if the item is sold\n    // Call modifier to check if upc has passed previous supply chain stage\n    // Call modifier to verify caller of this function\n    function shipItem(uint256 _upc)\n        public\n        sold(_upc)\n        verifyCaller(msg.sender)\n        onlyDistributor\n    {\n        // Update the appropriate fields\n        items[_upc].itemState = State.Shipped;\n\n        // Emit the appropriate event\n        emit Shipped(_upc);\n    }\n\n    // Define a function 'receiveItem' that allows the retailer to mark an item 'Received'\n    // Use the above modifiers to check if the item is shipped\n    // Call modifier to check if upc has passed previous supply chain stage\n    // Access Control List enforced by calling Smart Contract / DApp\n    function receiveItem(uint256 _upc) public shipped(_upc) onlyRetailer {\n        // Update the appropriate fields - ownerID, retailerID, itemState\n        items[_upc].ownerID = msg.sender;\n        items[_upc].itemState = State.Received;\n        items[_upc].retailerID = msg.sender;\n\n        // Emit the appropriate event\n        emit Received(_upc);\n    }\n\n    // Define a function 'purchaseItem' that allows the consumer to mark an item 'Purchased'\n    // Use the above modifiers to check if the item is received\n    // Call modifier to check if upc has passed previous supply chain stage\n    // Access Control List enforced by calling Smart Contract / DApp\n    function purchaseItem(uint256 _upc) public received(_upc) onlyConsumer {\n        // Update the appropriate fields - ownerID, consumerID, itemState\n        items[_upc].ownerID = msg.sender;\n        items[_upc].itemState = State.Purchased;\n        items[_upc].consumerID = msg.sender;\n\n        // Emit the appropriate event\n        emit Purchased(_upc);\n    }\n\n    // Define a function 'fetchItemBuffer' that fetches the data\n    function fetchItemBuffer(uint256 _upc)\n        public\n        view\n        returns (\n            uint256 itemUPC,\n            uint256 productPrice,\n            uint256 itemState,\n            address distributorID,\n            address retailerID,\n            address consumerID\n        )\n    {\n        // Assign values to the 9 parameters\n        itemUPC = items[_upc].upc;\n        productPrice = items[_upc].productPrice;\n        itemState = uint256(items[_upc].itemState);\n        distributorID = items[_upc].distributorID;\n        retailerID = items[_upc].retailerID;\n        consumerID = items[_upc].consumerID;\n\n        return (\n            itemUPC,\n            productPrice,\n            itemState,\n            distributorID,\n            retailerID,\n            consumerID\n        );\n    }\n\n    /*\n     * Modifiers\n    */\n\n    // Define a modifier that checks if the paid amount is sufficient to cover the price\n    modifier paidEnough(uint256 _price) {\n        require(\n            msg.value >= _price,\n            \"Paid amount is insufficient for the price.\"\n        );\n        _;\n    }\n\n    // Define a modifier that checks the price and refunds the remaining balance\n    modifier checkValue(uint256 _upc) {\n        _;\n        uint256 _price = items[_upc].productPrice;\n        uint256 amountToReturn = msg.value - _price;\n        payable(items[_upc].consumerID).transfer(amountToReturn);\n    }\n\n    // Define a modifer that verifies the Caller\n    modifier verifyCaller(address _address) {\n        require(\n            msg.sender == _address,\n            \"Sender is not the caller of the contract.\"\n        );\n        _;\n    }\n\n    modifier manufactured(uint256 _upc) {\n        require(\n            items[_upc].itemState == State.Manufactured,\n            \"Product hasn't been manufactured.\"\n        );\n        _;\n    }\n\n    modifier packed(uint256 _upc) {\n        require(\n            items[_upc].itemState == State.Packed,\n            \"Product hasn't been packed.\"\n        );\n        _;\n    }\n\n    modifier forSale(uint256 _upc) {\n        require(\n            items[_upc].itemState == State.ForSale,\n            \"Product isn't for sale yet.\"\n        );\n        _;\n    }\n\n    modifier sold(uint256 _upc) {\n        require(\n            items[_upc].itemState == State.Sold,\n            \"Product hasn't been sold.\"\n        );\n        _;\n    }\n\n    modifier shipped(uint256 _upc) {\n        require(\n            items[_upc].itemState == State.Shipped,\n            \"Product hasn't been shipped.\"\n        );\n        _;\n    }\n\n    modifier received(uint256 _upc) {\n        require(\n            items[_upc].itemState == State.Received,\n            \"Product hasn't been received.\"\n        );\n        _;\n    }\n\n    modifier purchased(uint256 _upc) {\n        require(\n            items[_upc].itemState == State.Purchased,\n            \"Product hasn't been purchased.\"\n        );\n        _;\n    }\n}\n",
  "sourcePath": "/home/waleed/Projects/Decentralized-Supply-Chain/contracts/SupplyChain.sol",
  "compiler": {
    "name": "solc",
    "version": "0.8.10+commit.fc410830.Emscripten.clang"
  },
  "schemaVersion": "3.4.3",
  "updatedAt": "2022-02-25T22:27:16.907Z",
  "devdoc": {
    "kind": "dev",
    "methods": {},
    "version": 1
  },
  "userdoc": {
    "kind": "user",
    "methods": {},
    "version": 1
  }
}