{
  "contractName": "SupplyChain",
  "abi": [
    {
      "inputs": [],
      "stateMutability": "payable",
      "type": "constructor"
    },
    {
      "anonymous": false,
      "inputs": [
        {
          "indexed": false,
          "internalType": "address",
          "name": "account",
          "type": "address"
        }
      ],
      "name": "ConsumerAdded",
      "type": "event"
    },
    {
      "anonymous": false,
      "inputs": [
        {
          "indexed": false,
          "internalType": "address",
          "name": "account",
          "type": "address"
        }
      ],
      "name": "ConsumerRemoved",
      "type": "event"
    },
    {
      "anonymous": false,
      "inputs": [
        {
          "indexed": true,
          "internalType": "address",
          "name": "account",
          "type": "address"
        }
      ],
      "name": "DistributorAdded",
      "type": "event"
    },
    {
      "anonymous": false,
      "inputs": [
        {
          "indexed": true,
          "internalType": "address",
          "name": "account",
          "type": "address"
        }
      ],
      "name": "DistributorRemoved",
      "type": "event"
    },
    {
      "anonymous": false,
      "inputs": [
        {
          "indexed": false,
          "internalType": "uint256",
          "name": "upc",
          "type": "uint256"
        }
      ],
      "name": "ForSale",
      "type": "event"
    },
    {
      "anonymous": false,
      "inputs": [
        {
          "indexed": false,
          "internalType": "uint256",
          "name": "upc",
          "type": "uint256"
        }
      ],
      "name": "Manufactured",
      "type": "event"
    },
    {
      "anonymous": false,
      "inputs": [
        {
          "indexed": true,
          "internalType": "address",
          "name": "account",
          "type": "address"
        }
      ],
      "name": "ManufacturerAdded",
      "type": "event"
    },
    {
      "anonymous": false,
      "inputs": [
        {
          "indexed": true,
          "internalType": "address",
          "name": "account",
          "type": "address"
        }
      ],
      "name": "ManufacturerRemoved",
      "type": "event"
    },
    {
      "anonymous": false,
      "inputs": [
        {
          "indexed": false,
          "internalType": "uint256",
          "name": "upc",
          "type": "uint256"
        }
      ],
      "name": "Packed",
      "type": "event"
    },
    {
      "anonymous": false,
      "inputs": [
        {
          "indexed": false,
          "internalType": "uint256",
          "name": "upc",
          "type": "uint256"
        }
      ],
      "name": "Purchased",
      "type": "event"
    },
    {
      "anonymous": false,
      "inputs": [
        {
          "indexed": false,
          "internalType": "uint256",
          "name": "upc",
          "type": "uint256"
        }
      ],
      "name": "Received",
      "type": "event"
    },
    {
      "anonymous": false,
      "inputs": [
        {
          "indexed": true,
          "internalType": "address",
          "name": "account",
          "type": "address"
        }
      ],
      "name": "RetailerAdded",
      "type": "event"
    },
    {
      "anonymous": false,
      "inputs": [
        {
          "indexed": true,
          "internalType": "address",
          "name": "account",
          "type": "address"
        }
      ],
      "name": "RetailerRemoved",
      "type": "event"
    },
    {
      "anonymous": false,
      "inputs": [
        {
          "indexed": false,
          "internalType": "uint256",
          "name": "upc",
          "type": "uint256"
        }
      ],
      "name": "Shipped",
      "type": "event"
    },
    {
      "anonymous": false,
      "inputs": [
        {
          "indexed": false,
          "internalType": "uint256",
          "name": "upc",
          "type": "uint256"
        }
      ],
      "name": "Sold",
      "type": "event"
    },
    {
      "anonymous": false,
      "inputs": [
        {
          "indexed": true,
          "internalType": "address",
          "name": "oldOwner",
          "type": "address"
        },
        {
          "indexed": true,
          "internalType": "address",
          "name": "newOwner",
          "type": "address"
        }
      ],
      "name": "TransferOwnership",
      "type": "event"
    },
    {
      "inputs": [
        {
          "internalType": "address",
          "name": "account",
          "type": "address"
        }
      ],
      "name": "addConsumer",
      "outputs": [],
      "stateMutability": "nonpayable",
      "type": "function"
    },
    {
      "inputs": [
        {
          "internalType": "address",
          "name": "account",
          "type": "address"
        }
      ],
      "name": "addDistributor",
      "outputs": [],
      "stateMutability": "nonpayable",
      "type": "function"
    },
    {
      "inputs": [
        {
          "internalType": "address",
          "name": "account",
          "type": "address"
        }
      ],
      "name": "addManufacturer",
      "outputs": [],
      "stateMutability": "nonpayable",
      "type": "function"
    },
    {
      "inputs": [
        {
          "internalType": "address",
          "name": "account",
          "type": "address"
        }
      ],
      "name": "addRetailer",
      "outputs": [],
      "stateMutability": "nonpayable",
      "type": "function"
    },
    {
      "inputs": [
        {
          "internalType": "address",
          "name": "account",
          "type": "address"
        }
      ],
      "name": "isConsumer",
      "outputs": [
        {
          "internalType": "bool",
          "name": "",
          "type": "bool"
        }
      ],
      "stateMutability": "view",
      "type": "function"
    },
    {
      "inputs": [
        {
          "internalType": "address",
          "name": "account",
          "type": "address"
        }
      ],
      "name": "isDistributor",
      "outputs": [
        {
          "internalType": "bool",
          "name": "",
          "type": "bool"
        }
      ],
      "stateMutability": "view",
      "type": "function"
    },
    {
      "inputs": [
        {
          "internalType": "address",
          "name": "account",
          "type": "address"
        }
      ],
      "name": "isManufacturer",
      "outputs": [
        {
          "internalType": "bool",
          "name": "",
          "type": "bool"
        }
      ],
      "stateMutability": "view",
      "type": "function"
    },
    {
      "inputs": [],
      "name": "isOwner",
      "outputs": [
        {
          "internalType": "bool",
          "name": "",
          "type": "bool"
        }
      ],
      "stateMutability": "view",
      "type": "function"
    },
    {
      "inputs": [
        {
          "internalType": "address",
          "name": "account",
          "type": "address"
        }
      ],
      "name": "isRetailer",
      "outputs": [
        {
          "internalType": "bool",
          "name": "",
          "type": "bool"
        }
      ],
      "stateMutability": "view",
      "type": "function"
    },
    {
      "inputs": [],
      "name": "owner",
      "outputs": [
        {
          "internalType": "address",
          "name": "",
          "type": "address"
        }
      ],
      "stateMutability": "view",
      "type": "function"
    },
    {
      "inputs": [],
      "name": "renounceConsumer",
      "outputs": [],
      "stateMutability": "nonpayable",
      "type": "function"
    },
    {
      "inputs": [],
      "name": "renounceDistributor",
      "outputs": [],
      "stateMutability": "nonpayable",
      "type": "function"
    },
    {
      "inputs": [],
      "name": "renounceManufacturer",
      "outputs": [],
      "stateMutability": "nonpayable",
      "type": "function"
    },
    {
      "inputs": [],
      "name": "renounceOwnership",
      "outputs": [],
      "stateMutability": "nonpayable",
      "type": "function"
    },
    {
      "inputs": [],
      "name": "renounceRetailer",
      "outputs": [],
      "stateMutability": "nonpayable",
      "type": "function"
    },
    {
      "inputs": [
        {
          "internalType": "address",
          "name": "newOwner",
          "type": "address"
        }
      ],
      "name": "transferOwnership",
      "outputs": [],
      "stateMutability": "nonpayable",
      "type": "function"
    },
    {
      "inputs": [],
      "name": "kill",
      "outputs": [],
      "stateMutability": "nonpayable",
      "type": "function"
    },
    {
      "inputs": [
        {
          "internalType": "uint256",
          "name": "_upc",
          "type": "uint256"
        },
        {
          "internalType": "address",
          "name": "_originManufacturerID",
          "type": "address"
        },
        {
          "internalType": "string",
          "name": "_originManufacturerName",
          "type": "string"
        },
        {
          "internalType": "string",
          "name": "_originManufacturerInformation",
          "type": "string"
        }
      ],
      "name": "manufactureItem",
      "outputs": [],
      "stateMutability": "nonpayable",
      "type": "function"
    },
    {
      "inputs": [
        {
          "internalType": "uint256",
          "name": "_upc",
          "type": "uint256"
        }
      ],
      "name": "packItem",
      "outputs": [],
      "stateMutability": "nonpayable",
      "type": "function"
    },
    {
      "inputs": [
        {
          "internalType": "uint256",
          "name": "_upc",
          "type": "uint256"
        },
        {
          "internalType": "uint256",
          "name": "_price",
          "type": "uint256"
        }
      ],
      "name": "sellItem",
      "outputs": [],
      "stateMutability": "nonpayable",
      "type": "function"
    },
    {
      "inputs": [
        {
          "internalType": "uint256",
          "name": "_upc",
          "type": "uint256"
        }
      ],
      "name": "buyItem",
      "outputs": [],
      "stateMutability": "payable",
      "type": "function"
    },
    {
      "inputs": [
        {
          "internalType": "uint256",
          "name": "_upc",
          "type": "uint256"
        }
      ],
      "name": "shipItem",
      "outputs": [],
      "stateMutability": "nonpayable",
      "type": "function"
    }
  ],
  "bytecode": "0x6080604052336000806101000a81548173ffffffffffffffffffffffffffffffffffffffff021916908373ffffffffffffffffffffffffffffffffffffffff16021790555060008054906101000a900473ffffffffffffffffffffffffffffffffffffffff1673ffffffffffffffffffffffffffffffffffffffff16600073ffffffffffffffffffffffffffffffffffffffff167f5c486528ec3e3f0ea91181cff8116f02bfa350e03b8b6f12e00765adbb5af85c60405160405180910390a3620000d0336200011160201b60201c565b620000e1336200016860201b60201c565b620000f233620001c960201b60201c565b62000103336200022a60201b60201c565b600160058190555062000436565b6200012c8160016200028b60201b620014521790919060201c565b7f28b26e7a3d20aedbc5f8f2ebf7da671c0491723a2b78f47a097b0e46dee07142816040516200015d919062000419565b60405180910390a150565b620001838160026200028b60201b620014521790919060201c565b8073ffffffffffffffffffffffffffffffffffffffff167fddbf200aa634dc3fb81cfd68583dd1040d1c751d335e1d86b631bde3e977fea860405160405180910390a250565b620001e48160036200028b60201b620014521790919060201c565b8073ffffffffffffffffffffffffffffffffffffffff167f561138658ca49a8540dc70dcfe64c9026c1c5b9344642242dd6562970f9c127860405160405180910390a250565b620002458160046200028b60201b620014521790919060201c565b8073ffffffffffffffffffffffffffffffffffffffff167f71ae26cad02663e3d92efd6ec56031a80d74a20c0ab4183faa8bf262261c9baa60405160405180910390a250565b600073ffffffffffffffffffffffffffffffffffffffff168173ffffffffffffffffffffffffffffffffffffffff161415620002c657600080fd5b620002d882826200034160201b60201c565b15620002e357600080fd5b60018260000160008373ffffffffffffffffffffffffffffffffffffffff1673ffffffffffffffffffffffffffffffffffffffff16815260200190815260200160002060006101000a81548160ff0219169083151502179055505050565b60008073ffffffffffffffffffffffffffffffffffffffff168273ffffffffffffffffffffffffffffffffffffffff1614156200037d57600080fd5b8260000160008373ffffffffffffffffffffffffffffffffffffffff1673ffffffffffffffffffffffffffffffffffffffff16815260200190815260200160002060009054906101000a900460ff16905092915050565b600073ffffffffffffffffffffffffffffffffffffffff82169050919050565b60006200040182620003d4565b9050919050565b6200041381620003f4565b82525050565b600060208201905062000430600083018462000408565b92915050565b6124ba80620004466000396000f3fe6080604052600436106101355760003560e01c80638da5cb5b116100ab578063de07f34e1161006f578063de07f34e146103c4578063e7fb74c7146103db578063f2fde38b146103f7578063f30fc48014610420578063f61c899a14610449578063fc0a9d301461047257610135565b80638da5cb5b146102f15780638ec4f5051461031c5780638f0c86fa146103455780638f32d59b14610382578063db0e6a2f146103ad57610135565b80635f8a5afa116100fd5780635f8a5afa1461021d57806361e6982d14610246578063644241db1461025d578063715018a6146102745780637250e2241461028b578063834ff739146102b457610135565b8063112940f91461013a57806317d4a491146101635780632d923561146101a057806341c0e1b5146101c95780635da09b88146101e0575b600080fd5b34801561014657600080fd5b50610161600480360381019061015c9190611aff565b61049b565b005b34801561016f57600080fd5b5061018a60048036038101906101859190611aff565b6104ef565b6040516101979190611b47565b60405180910390f35b3480156101ac57600080fd5b506101c760048036038101906101c29190611b98565b61050c565b005b3480156101d557600080fd5b506101de6106e5565b005b3480156101ec57600080fd5b5061020760048036038101906102029190611aff565b61070d565b6040516102149190611b47565b60405180910390f35b34801561022957600080fd5b50610244600480360381019061023f9190611aff565b61072a565b005b34801561025257600080fd5b5061025b61077e565b005b34801561026957600080fd5b50610272610789565b005b34801561028057600080fd5b50610289610794565b005b34801561029757600080fd5b506102b260048036038101906102ad9190611aff565b610863565b005b3480156102c057600080fd5b506102db60048036038101906102d69190611aff565b6108b7565b6040516102e89190611b47565b60405180910390f35b3480156102fd57600080fd5b506103066108d4565b6040516103139190611be7565b60405180910390f35b34801561032857600080fd5b50610343600480360381019061033e9190611aff565b6108fd565b005b34801561035157600080fd5b5061036c60048036038101906103679190611aff565b610951565b6040516103799190611b47565b60405180910390f35b34801561038e57600080fd5b5061039761096e565b6040516103a49190611b47565b60405180910390f35b3480156103b957600080fd5b506103c26109c5565b005b3480156103d057600080fd5b506103d96109d0565b005b6103f560048036038101906103f09190611c02565b6109db565b005b34801561040357600080fd5b5061041e60048036038101906104199190611aff565b610d72565b005b34801561042c57600080fd5b5061044760048036038101906104429190611c02565b610d8f565b005b34801561045557600080fd5b50610470600480360381019061046b9190611c02565b610f4c565b005b34801561047e57600080fd5b5061049960048036038101906104949190611d75565b611109565b005b6104a4336108b7565b6104e3576040517f08c379a00000000000000000000000000000000000000000000000000000000081526004016104da90611e97565b60405180910390fd5b6104ec816114fe565b50565b600061050582600361154c90919063ffffffff16565b9050919050565b816001600681111561052157610520611eb7565b5b6006600083815260200190815260200160002060030160009054906101000a900460ff16600681111561055757610556611eb7565b5b14610597576040517f08c379a000000000000000000000000000000000000000000000000000000000815260040161058e90611f32565b60405180910390fd5b338073ffffffffffffffffffffffffffffffffffffffff163373ffffffffffffffffffffffffffffffffffffffff1614610606576040517f08c379a00000000000000000000000000000000000000000000000000000000081526004016105fd90611fc4565b60405180910390fd5b61060f336104ef565b61064e576040517f08c379a000000000000000000000000000000000000000000000000000000000815260040161064590612056565b60405180910390fd5b60026006600086815260200190815260200160002060030160006101000a81548160ff0219169083600681111561068857610687611eb7565b5b02179055508260066000868152602001908152602001600020600201819055507fa96ae0fc3224ebd79eebfe54bd130cc9cb94416cddd1f2386115e00b72532468846040516106d79190612085565b60405180910390a150505050565b6106ed61096e565b1561070b573373ffffffffffffffffffffffffffffffffffffffff16ff5b565b600061072382600461154c90919063ffffffff16565b9050919050565b610733336104ef565b610772576040517f08c379a000000000000000000000000000000000000000000000000000000000815260040161076990612056565b60405180910390fd5b61077b816115de565b50565b61078733611638565b565b61079233611686565b565b61079c61096e565b6107a557600080fd5b600073ffffffffffffffffffffffffffffffffffffffff1660008054906101000a900473ffffffffffffffffffffffffffffffffffffffff1673ffffffffffffffffffffffffffffffffffffffff167f5c486528ec3e3f0ea91181cff8116f02bfa350e03b8b6f12e00765adbb5af85c60405160405180910390a360008060006101000a81548173ffffffffffffffffffffffffffffffffffffffff021916908373ffffffffffffffffffffffffffffffffffffffff160217905550565b61086c33610951565b6108ab576040517f08c379a00000000000000000000000000000000000000000000000000000000081526004016108a290612112565b60405180910390fd5b6108b4816116e0565b50565b60006108cd82600161154c90919063ffffffff16565b9050919050565b60008060009054906101000a900473ffffffffffffffffffffffffffffffffffffffff16905090565b6109063361070d565b610945576040517f08c379a000000000000000000000000000000000000000000000000000000000815260040161093c906121a4565b60405180910390fd5b61094e8161173a565b50565b600061096782600261154c90919063ffffffff16565b9050919050565b60008060009054906101000a900473ffffffffffffffffffffffffffffffffffffffff1673ffffffffffffffffffffffffffffffffffffffff163373ffffffffffffffffffffffffffffffffffffffff1614905090565b6109ce33611794565b565b6109d9336117ee565b565b80600260068111156109f0576109ef611eb7565b5b6006600083815260200190815260200160002060030160009054906101000a900460ff166006811115610a2657610a25611eb7565b5b14610a66576040517f08c379a0000000000000000000000000000000000000000000000000000000008152600401610a5d90612210565b60405180910390fd5b600660008381526020019081526020016000206002015480341015610ac0576040517f08c379a0000000000000000000000000000000000000000000000000000000008152600401610ab7906122a2565b60405180910390fd5b82610aca33610951565b610b09576040517f08c379a0000000000000000000000000000000000000000000000000000000008152600401610b0090612112565b60405180910390fd5b336006600086815260200190815260200160002060010160006101000a81548173ffffffffffffffffffffffffffffffffffffffff021916908373ffffffffffffffffffffffffffffffffffffffff16021790555060036006600086815260200190815260200160002060030160006101000a81548160ff02191690836006811115610b9857610b97611eb7565b5b0217905550336006600086815260200190815260200160002060060160006101000a81548173ffffffffffffffffffffffffffffffffffffffff021916908373ffffffffffffffffffffffffffffffffffffffff1602179055506000600660008681526020019081526020016000206002015490506006600086815260200190815260200160002060030160019054906101000a900473ffffffffffffffffffffffffffffffffffffffff1673ffffffffffffffffffffffffffffffffffffffff166108fc829081150290604051600060405180830381858888f19350505050158015610c89573d6000803e3d6000fd5b507f92f64ca637d023f354075a4be751b169c1a8a9ccb6d33cdd0cb352054399572785604051610cb99190612085565b60405180910390a15060006006600083815260200190815260200160002060020154905060008134610ceb91906122f1565b90506006600084815260200190815260200160002060080160009054906101000a900473ffffffffffffffffffffffffffffffffffffffff1673ffffffffffffffffffffffffffffffffffffffff166108fc829081150290604051600060405180830381858888f19350505050158015610d69573d6000803e3d6000fd5b50505050505050565b610d7a61096e565b610d8357600080fd5b610d8c81611848565b50565b8060006006811115610da457610da3611eb7565b5b6006600083815260200190815260200160002060030160009054906101000a900460ff166006811115610dda57610dd9611eb7565b5b14610e1a576040517f08c379a0000000000000000000000000000000000000000000000000000000008152600401610e1190612397565b60405180910390fd5b338073ffffffffffffffffffffffffffffffffffffffff163373ffffffffffffffffffffffffffffffffffffffff1614610e89576040517f08c379a0000000000000000000000000000000000000000000000000000000008152600401610e8090611fc4565b60405180910390fd5b610e92336104ef565b610ed1576040517f08c379a0000000000000000000000000000000000000000000000000000000008152600401610ec890612056565b60405180910390fd5b60016006600085815260200190815260200160002060030160006101000a81548160ff02191690836006811115610f0b57610f0a611eb7565b5b02179055507f9b3b66e2380b690bae22c73ef1428fb0c91e72fe14a4b6defa13035214187aff83604051610f3f9190612085565b60405180910390a1505050565b8060036006811115610f6157610f60611eb7565b5b6006600083815260200190815260200160002060030160009054906101000a900460ff166006811115610f9757610f96611eb7565b5b14610fd7576040517f08c379a0000000000000000000000000000000000000000000000000000000008152600401610fce90612403565b60405180910390fd5b338073ffffffffffffffffffffffffffffffffffffffff163373ffffffffffffffffffffffffffffffffffffffff1614611046576040517f08c379a000000000000000000000000000000000000000000000000000000000815260040161103d90611fc4565b60405180910390fd5b61104f33610951565b61108e576040517f08c379a000000000000000000000000000000000000000000000000000000000815260040161108590612112565b60405180910390fd5b60046006600085815260200190815260200160002060030160006101000a81548160ff021916908360068111156110c8576110c7611eb7565b5b02179055507ff00b9a5725b80c54016f42114f6ed7792d22eecb116011c4afac29c57bef6c95836040516110fc9190612085565b60405180910390a1505050565b611112336104ef565b611151576040517f08c379a000000000000000000000000000000000000000000000000000000000815260040161114890612056565b60405180910390fd5b6040518061014001604052808581526020018473ffffffffffffffffffffffffffffffffffffffff168152602001600081526020016000600681111561119a57611199611eb7565b5b81526020018473ffffffffffffffffffffffffffffffffffffffff168152602001838152602001828152602001600073ffffffffffffffffffffffffffffffffffffffff168152602001600073ffffffffffffffffffffffffffffffffffffffff168152602001600073ffffffffffffffffffffffffffffffffffffffff16815250600660008681526020019081526020016000206000820151816000015560208201518160010160006101000a81548173ffffffffffffffffffffffffffffffffffffffff021916908373ffffffffffffffffffffffffffffffffffffffff1602179055506040820151816002015560608201518160030160006101000a81548160ff021916908360068111156112b5576112b4611eb7565b5b021790555060808201518160030160016101000a81548173ffffffffffffffffffffffffffffffffffffffff021916908373ffffffffffffffffffffffffffffffffffffffff16021790555060a082015181600401908051906020019061131d9291906119ea565b5060c082015181600501908051906020019061133a9291906119ea565b5060e08201518160060160006101000a81548173ffffffffffffffffffffffffffffffffffffffff021916908373ffffffffffffffffffffffffffffffffffffffff1602179055506101008201518160070160006101000a81548173ffffffffffffffffffffffffffffffffffffffff021916908373ffffffffffffffffffffffffffffffffffffffff1602179055506101208201518160080160006101000a81548173ffffffffffffffffffffffffffffffffffffffff021916908373ffffffffffffffffffffffffffffffffffffffff1602179055509050507fd29d8a68ca7c8c74be5579719d445aabfe230ed6e6a83aff475a663500eb7609846040516114449190612085565b60405180910390a150505050565b600073ffffffffffffffffffffffffffffffffffffffff168173ffffffffffffffffffffffffffffffffffffffff16141561148c57600080fd5b611496828261154c565b156114a057600080fd5b60018260000160008373ffffffffffffffffffffffffffffffffffffffff1673ffffffffffffffffffffffffffffffffffffffff16815260200190815260200160002060006101000a81548160ff0219169083151502179055505050565b61151281600161145290919063ffffffff16565b7f28b26e7a3d20aedbc5f8f2ebf7da671c0491723a2b78f47a097b0e46dee07142816040516115419190611be7565b60405180910390a150565b60008073ffffffffffffffffffffffffffffffffffffffff168273ffffffffffffffffffffffffffffffffffffffff16141561158757600080fd5b8260000160008373ffffffffffffffffffffffffffffffffffffffff1673ffffffffffffffffffffffffffffffffffffffff16815260200190815260200160002060009054906101000a900460ff16905092915050565b6115f281600361145290919063ffffffff16565b8073ffffffffffffffffffffffffffffffffffffffff167f561138658ca49a8540dc70dcfe64c9026c1c5b9344642242dd6562970f9c127860405160405180910390a250565b61164c81600161193f90919063ffffffff16565b7fe3f5ed5f263f1f01764a96edfc7d025f511ec5f7d180e8816908b78bcf74f0988160405161167b9190611be7565b60405180910390a150565b61169a81600261193f90919063ffffffff16565b8073ffffffffffffffffffffffffffffffffffffffff167f126174f6cf49c81cdb4a9214c6b8f037bef55b4ec31e4fc776cea2a1c8a88d5960405160405180910390a250565b6116f481600261145290919063ffffffff16565b8073ffffffffffffffffffffffffffffffffffffffff167fddbf200aa634dc3fb81cfd68583dd1040d1c751d335e1d86b631bde3e977fea860405160405180910390a250565b61174e81600461145290919063ffffffff16565b8073ffffffffffffffffffffffffffffffffffffffff167f71ae26cad02663e3d92efd6ec56031a80d74a20c0ab4183faa8bf262261c9baa60405160405180910390a250565b6117a881600461193f90919063ffffffff16565b8073ffffffffffffffffffffffffffffffffffffffff167fdb7176e79cffef81cb01767dd0447a0b24bb72ca9778d4b245581086b2a7e6db60405160405180910390a250565b61180281600361193f90919063ffffffff16565b8073ffffffffffffffffffffffffffffffffffffffff167f2fed5abf6a80d6dfe30b4895481b2fc5d7dce5f8f7b931832f4a2947d5040c7f60405160405180910390a250565b600073ffffffffffffffffffffffffffffffffffffffff168173ffffffffffffffffffffffffffffffffffffffff16141561188257600080fd5b8073ffffffffffffffffffffffffffffffffffffffff1660008054906101000a900473ffffffffffffffffffffffffffffffffffffffff1673ffffffffffffffffffffffffffffffffffffffff167f5c486528ec3e3f0ea91181cff8116f02bfa350e03b8b6f12e00765adbb5af85c60405160405180910390a3806000806101000a81548173ffffffffffffffffffffffffffffffffffffffff021916908373ffffffffffffffffffffffffffffffffffffffff16021790555050565b600073ffffffffffffffffffffffffffffffffffffffff168173ffffffffffffffffffffffffffffffffffffffff16141561197957600080fd5b611983828261154c565b61198c57600080fd5b60008260000160008373ffffffffffffffffffffffffffffffffffffffff1673ffffffffffffffffffffffffffffffffffffffff16815260200190815260200160002060006101000a81548160ff0219169083151502179055505050565b8280546119f690612452565b90600052602060002090601f016020900481019282611a185760008555611a5f565b82601f10611a3157805160ff1916838001178555611a5f565b82800160010185558215611a5f579182015b82811115611a5e578251825591602001919060010190611a43565b5b509050611a6c9190611a70565b5090565b5b80821115611a89576000816000905550600101611a71565b5090565b6000604051905090565b600080fd5b600080fd5b600073ffffffffffffffffffffffffffffffffffffffff82169050919050565b6000611acc82611aa1565b9050919050565b611adc81611ac1565b8114611ae757600080fd5b50565b600081359050611af981611ad3565b92915050565b600060208284031215611b1557611b14611a97565b5b6000611b2384828501611aea565b91505092915050565b60008115159050919050565b611b4181611b2c565b82525050565b6000602082019050611b5c6000830184611b38565b92915050565b6000819050919050565b611b7581611b62565b8114611b8057600080fd5b50565b600081359050611b9281611b6c565b92915050565b60008060408385031215611baf57611bae611a97565b5b6000611bbd85828601611b83565b9250506020611bce85828601611b83565b9150509250929050565b611be181611ac1565b82525050565b6000602082019050611bfc6000830184611bd8565b92915050565b600060208284031215611c1857611c17611a97565b5b6000611c2684828501611b83565b91505092915050565b600080fd5b600080fd5b6000601f19601f8301169050919050565b7f4e487b7100000000000000000000000000000000000000000000000000000000600052604160045260246000fd5b611c8282611c39565b810181811067ffffffffffffffff82111715611ca157611ca0611c4a565b5b80604052505050565b6000611cb4611a8d565b9050611cc08282611c79565b919050565b600067ffffffffffffffff821115611ce057611cdf611c4a565b5b611ce982611c39565b9050602081019050919050565b82818337600083830152505050565b6000611d18611d1384611cc5565b611caa565b905082815260208101848484011115611d3457611d33611c34565b5b611d3f848285611cf6565b509392505050565b600082601f830112611d5c57611d5b611c2f565b5b8135611d6c848260208601611d05565b91505092915050565b60008060008060808587031215611d8f57611d8e611a97565b5b6000611d9d87828801611b83565b9450506020611dae87828801611aea565b935050604085013567ffffffffffffffff811115611dcf57611dce611a9c565b5b611ddb87828801611d47565b925050606085013567ffffffffffffffff811115611dfc57611dfb611a9c565b5b611e0887828801611d47565b91505092959194509250565b600082825260208201905092915050565b7f53656e64657220646f65736e277420686176652074686520636f6e73756d657260008201527f20726f6c652e0000000000000000000000000000000000000000000000000000602082015250565b6000611e81602683611e14565b9150611e8c82611e25565b604082019050919050565b60006020820190508181036000830152611eb081611e74565b9050919050565b7f4e487b7100000000000000000000000000000000000000000000000000000000600052602160045260246000fd5b7f50726f64756374206861736e2774206265656e207061636b65642e0000000000600082015250565b6000611f1c601b83611e14565b9150611f2782611ee6565b602082019050919050565b60006020820190508181036000830152611f4b81611f0f565b9050919050565b7f53656e646572206973206e6f74207468652063616c6c6572206f66207468652060008201527f636f6e74726163742e0000000000000000000000000000000000000000000000602082015250565b6000611fae602983611e14565b9150611fb982611f52565b604082019050919050565b60006020820190508181036000830152611fdd81611fa1565b9050919050565b7f53656e64657220646f65736e2774206861766520746865206d616e756661637460008201527f7572657220726f6c652e00000000000000000000000000000000000000000000602082015250565b6000612040602a83611e14565b915061204b82611fe4565b604082019050919050565b6000602082019050818103600083015261206f81612033565b9050919050565b61207f81611b62565b82525050565b600060208201905061209a6000830184612076565b92915050565b7f53656e64657220646f65736e277420686176652074686520646973747269627560008201527f746f7220726f6c652e0000000000000000000000000000000000000000000000602082015250565b60006120fc602983611e14565b9150612107826120a0565b604082019050919050565b6000602082019050818103600083015261212b816120ef565b9050919050565b7f53656e64657220646f65736e27742068617665207468652072657461696c657260008201527f20726f6c652e0000000000000000000000000000000000000000000000000000602082015250565b600061218e602683611e14565b915061219982612132565b604082019050919050565b600060208201905081810360008301526121bd81612181565b9050919050565b7f50726f647563742069736e277420666f722073616c65207965742e0000000000600082015250565b60006121fa601b83611e14565b9150612205826121c4565b602082019050919050565b60006020820190508181036000830152612229816121ed565b9050919050565b7f5061696420616d6f756e7420697320696e73756666696369656e7420666f722060008201527f7468652070726963652e00000000000000000000000000000000000000000000602082015250565b600061228c602a83611e14565b915061229782612230565b604082019050919050565b600060208201905081810360008301526122bb8161227f565b9050919050565b7f4e487b7100000000000000000000000000000000000000000000000000000000600052601160045260246000fd5b60006122fc82611b62565b915061230783611b62565b92508282101561231a576123196122c2565b5b828203905092915050565b7f50726f64756374206861736e2774206265656e206d616e75666163747572656460008201527f2e00000000000000000000000000000000000000000000000000000000000000602082015250565b6000612381602183611e14565b915061238c82612325565b604082019050919050565b600060208201905081810360008301526123b081612374565b9050919050565b7f50726f64756374206861736e2774206265656e20736f6c642e00000000000000600082015250565b60006123ed601983611e14565b91506123f8826123b7565b602082019050919050565b6000602082019050818103600083015261241c816123e0565b9050919050565b7f4e487b7100000000000000000000000000000000000000000000000000000000600052602260045260246000fd5b6000600282049050600182168061246a57607f821691505b6020821081141561247e5761247d612423565b5b5091905056fea2646970667358221220da3b0a27f94b4dcd879292a6adfbcd8b4ac4f0d3252dbc47bd5cf64b5a46c2d164736f6c634300080a0033",
  "immutableReferences": {},
  "source": "// SPDX-License-Identifier: UNLICENSED\npragma solidity >=0.4.22 <0.9.0;\n\nimport \"./Ownable.sol\";\nimport \"./roles/Consumer.sol\";\nimport \"./roles/Distributor.sol\";\nimport \"./roles/Manufacturer.sol\";\nimport \"./roles/Retailer.sol\";\n\ncontract SupplyChain is Ownable, Consumer, Distributor, Manufacturer, Retailer {\n    // Define a variable called 'upc' for Universal Product Code (UPC)\n    uint256 upc;\n\n    // Define enum 'State' with the following values (from 0 to 6):\n    enum State {\n        Manufactured,\n        Packed,\n        ForSale,\n        Sold,\n        Shipped,\n        Received,\n        Purchased\n    }\n\n    State constant defaultState = State.Manufactured;\n\n    struct Item {\n        uint256 upc; // Universal Product Code (UPC), generated by the Manuufacturer, goes on the package, can be verified by the Consumer\n        address ownerID; // Metamask-Ethereum address of the current owner as the product moves through 7 stages\n        uint256 productPrice; // Product Price\n        State itemState; // Product State as represented in the enum above\n\n        address originManufacturerID; // Metamask-Ethereum address of the Manufacturer\n        string originManufacturerName; // Manufacturer Name\n        string originManufacturerInformation; // Manufacturer Information\n\n        address distributorID; // Metamask-Ethereum address of the Distributor\n        address retailerID; // Metamask-Ethereum address of the Retailer\n        address consumerID; // Metamask-Ethereum address of the Consumer\n    }\n\n    // Define a public mapping 'items' that maps the UPC to an Item.\n    mapping(uint256 => Item) items;\n\n    // Define 7 events with the same 7 state values and accept 'upc' as input argument\n    event Manufactured(uint256 upc);\n    event Packed(uint256 upc);\n    event ForSale(uint256 upc);\n    event Sold(uint256 upc);\n    event Shipped(uint256 upc);\n    event Received(uint256 upc);\n    event Purchased(uint256 upc);\n\n    // In the constructor set 'owner' to the address that instantiated the contract\n    // and set 'sku' to 1\n    // and set 'upc' to 1\n    constructor() payable {\n        upc = 1;\n    }\n\n    // Define a function 'kill' if required\n    function kill() public {\n        if (isOwner()) selfdestruct(payable(msg.sender));\n    }\n\n    // Define a function 'manufactureItem' that allows a manufacturer to mark an item 'Manufactured'\n    function manufactureItem(\n        uint256 _upc,\n        address _originManufacturerID,\n        string memory _originManufacturerName,\n        string memory _originManufacturerInformation\n    ) public onlyManufacturer {\n        // Add the new item as part of Manufacturing\n        items[_upc] = Item({\n            upc: _upc,\n            ownerID: _originManufacturerID,\n            productPrice: 0,\n            itemState: State.Manufactured,\n\n            originManufacturerID: _originManufacturerID,\n            originManufacturerName: _originManufacturerName,\n            originManufacturerInformation: _originManufacturerInformation,\n\n            distributorID: address(0),\n            retailerID: address(0),\n            consumerID: address(0)\n        });\n\n        // Emit the appropriate event\n        emit Manufactured(_upc);\n    }\n\n    // Define a function 'packItem' that allows a manufacturer to mark an item 'Packed'\n    // Call modifier to check if upc has passed previous supply chain stage\n    // Call modifier to verify caller of this function\n    function packItem(uint256 _upc)\n        public\n        manufactured(_upc)\n        verifyCaller(msg.sender)\n        onlyManufacturer\n    {\n        // Update the appropriate fields\n        items[_upc].itemState = State.Packed;\n\n        // Emit the appropriate event\n        emit Packed(_upc);\n    }\n\n    // Define a function 'sellItem' that allows a manufacturer to mark an item 'ForSale'\n    // Call modifier to check if upc has passed previous supply chain stage\n    // Call modifier to verify caller of this function\n    function sellItem(uint256 _upc, uint256 _price)\n        public\n        packed(_upc)\n        verifyCaller(msg.sender)\n        onlyManufacturer\n    {\n        // Update the appropriate fields\n        items[_upc].itemState = State.ForSale;\n        items[_upc].productPrice = _price;\n\n        // Emit the appropriate event\n        emit ForSale(_upc);\n    }\n\n    // Define a function 'buyItem' that allows the disributor to mark an item 'Sold'\n    // Use the above defined modifiers to check if the item is available for sale, if the buyer has paid enough,\n    // and any excess ether sent is refunded back to the buyer\n    // Call modifier to check if upc has passed previous supply chain stage\n    // Call modifer to check if buyer has paid enough\n    // Call modifer to send any excess ether back to buyer\n    function buyItem(uint256 _upc)\n        public\n        payable\n        forSale(_upc)\n        paidEnough(items[_upc].productPrice)\n        checkValue(_upc)\n        onlyDistributor\n    {\n        // Update the appropriate fields - ownerID, distributorID, itemState\n        items[_upc].ownerID = msg.sender;\n        items[_upc].itemState = State.Sold;\n        items[_upc].distributorID = msg.sender;\n\n        // Transfer money to manufacturer\n        uint256 price = items[_upc].productPrice;\n        payable(items[_upc].originManufacturerID).transfer(price);\n\n        // emit the appropriate event\n        emit Sold(_upc);\n    }\n\n    // Define a function 'shipItem' that allows the distributor to mark an item 'Shipped'\n    // Use the above modifers to check if the item is sold\n    // Call modifier to check if upc has passed previous supply chain stage\n    // Call modifier to verify caller of this function\n    function shipItem(uint256 _upc)\n        public\n        sold(_upc)\n        verifyCaller(msg.sender)\n        onlyDistributor\n    {\n        // Update the appropriate fields\n        items[_upc].itemState = State.Shipped;\n\n        // Emit the appropriate event\n        emit Shipped(_upc);\n    }\n\n    /*\n     * Modifiers\n    */\n\n    // Define a modifier that checks if the paid amount is sufficient to cover the price\n    modifier paidEnough(uint256 _price) {\n        require(\n            msg.value >= _price,\n            \"Paid amount is insufficient for the price.\"\n        );\n        _;\n    }\n\n    // Define a modifier that checks the price and refunds the remaining balance\n    modifier checkValue(uint256 _upc) {\n        _;\n        uint256 _price = items[_upc].productPrice;\n        uint256 amountToReturn = msg.value - _price;\n        payable(items[_upc].consumerID).transfer(amountToReturn);\n    }\n\n    // Define a modifer that verifies the Caller\n    modifier verifyCaller(address _address) {\n        require(\n            msg.sender == _address,\n            \"Sender is not the caller of the contract.\"\n        );\n        _;\n    }\n\n    modifier manufactured(uint256 _upc) {\n        require(\n            items[_upc].itemState == State.Manufactured,\n            \"Product hasn't been manufactured.\"\n        );\n        _;\n    }\n\n    modifier packed(uint256 _upc) {\n        require(\n            items[_upc].itemState == State.Packed,\n            \"Product hasn't been packed.\"\n        );\n        _;\n    }\n\n    modifier forSale(uint256 _upc) {\n        require(\n            items[_upc].itemState == State.ForSale,\n            \"Product isn't for sale yet.\"\n        );\n        _;\n    }\n\n    modifier sold(uint256 _upc) {\n        require(\n            items[_upc].itemState == State.Sold,\n            \"Product hasn't been sold.\"\n        );\n        _;\n    }\n\n    modifier shipped(uint256 _upc) {\n        require(\n            items[_upc].itemState == State.Shipped,\n            \"Product hasn't been shipped.\"\n        );\n        _;\n    }\n\n    modifier received(uint256 _upc) {\n        require(\n            items[_upc].itemState == State.Received,\n            \"Product hasn't been received.\"\n        );\n        _;\n    }\n\n    modifier purchased(uint256 _upc) {\n        require(\n            items[_upc].itemState == State.Purchased,\n            \"Product hasn't been purchased.\"\n        );\n        _;\n    }\n}\n",
  "sourcePath": "/home/waleed/Projects/Decentralized-Supply-Chain/contracts/SupplyChain.sol",
  "compiler": {
    "name": "solc",
    "version": "0.8.10+commit.fc410830.Emscripten.clang"
  },
  "schemaVersion": "3.4.3",
  "updatedAt": "2022-02-24T10:14:23.498Z",
  "devdoc": {
    "kind": "dev",
    "methods": {},
    "version": 1
  },
  "userdoc": {
    "kind": "user",
    "methods": {},
    "version": 1
  }
}